:020000040000fa
:080000000001040000000000f3
:020000040000fa
:040008008a02000068
:020000040000fa
:04000c008a02000064
:020000040000fa
:040010008a02000060
:020000040000fa
:040014008a0200005c
:020000040000fa
:040018008a02000058
:020000040000fa
:04001c008a02000054
:020000040000fa
:040020008a02000050
:020000040000fa
:040024008a0200004c
:020000040000fa
:040028008a02000048
:020000040000fa
:04002c008a02000044
:020000040000fa
:040030008a02000040
:020000040000fa
:040034003602000090
:020000040000fa
:040038008a02000038
:020000040000fa
:04003c008a02000034
:020000040000fa
:040040008a02000030
:020000040000fa
:040044008a0200002c
:020000040000fa
:040048008a02000028
:020000040000fa
:04004c00c8010000e7
:020000040000fa
:040050008a02000020
:020000040000fa
:040054008a0200001c
:020000040000fa
:040058008a02000018
:020000040000fa
:04005c008a02000014
:020000040000fa
:040060008a02000010
:020000040000fa
:040064008a0200000c
:020000040000fa
:040068008a02000008
:020000040000fa
:04006c008a02000004
:020000040000fa
:040070008a02000000
:020000040000fa
:040074008a020000fc
:020000040000fa
:040078008a020000f8
:020000040000fa
:04007c008a020000f4
:020000040000fa
:040080008a020000f0
:020000040000fa
:040084008a020000ec
:020000040000fa
:04008800040200006e
:020000040000fa
:04008c008a020000e4
:020000040000fa
:040090008a020000e0
:020000040000fa
:040094008a020000dc
:020000040000fa
:040098008a020000d8
:020000040000fa
:04009c008a020000d4
:020000040000fa
:0400a0008a020000d0
:020000040000fa
:0400a4008a020000cc
:020000040000fa
:0400a8008a020000c8
:020000040000fa
:0400ac008a020000c4
:020000040000fa
:0400b0008a020000c0
:020000040000fa
:0400b4008a020000bc
:020000040000fa
:0400b8008a020000b8
:020000040000fa
:0400bc008a020000b4
:020000040000fa
:0400c0008a020000b0
:020000040000fa
:0400c4008a020000ac
:020000040000fa
:0400c8008a020000a8
:020000040000fa
:0400cc008a020000a4
:020000040000fa
:0400d0008a020000a0
:020000040000fa
:0400d4008a0200009c
:020000040000fa
:0400d8008a02000098
:020000040000fa
:040108008a02000067
:020000040000fa
:04010c008a02000063
:020000040000fa
:040110008a0200005f
:020000040000fa
:040114008a0200005b
:020000040000fa
:040118008a02000057
:020000040000fa
:04011c008a02000053
:020000040000fa
:040120008a0200004f
:020000040000fa
:040124008a0200004b
:020000040000fa
:040128008a02000047
:020000040000fa
:04012c008a02000043
:020000040000fa
:040130008a0200003f
:020000040000fa
:04013400360200008f
:020000040000fa
:040138008a02000037
:020000040000fa
:04013c008a02000033
:020000040000fa
:040140008a0200002f
:020000040000fa
:040144008a0200002b
:020000040000fa
:040148008a02000027
:020000040000fa
:04014c00c8010000e6
:020000040000fa
:040150008a0200001f
:020000040000fa
:040154008a0200001b
:020000040000fa
:040158008a02000017
:020000040000fa
:04015c008a02000013
:020000040000fa
:040160008a0200000f
:020000040000fa
:040164008a0200000b
:020000040000fa
:040168008a02000007
:020000040000fa
:04016c008a02000003
:020000040000fa
:040170008a020000ff
:020000040000fa
:040174008a020000fb
:020000040000fa
:040178008a020000f7
:020000040000fa
:04017c008a020000f3
:020000040000fa
:040180008a020000ef
:020000040000fa
:040184008a020000eb
:020000040000fa
:04018800040200006d
:020000040000fa
:04018c008a020000e3
:020000040000fa
:040190008a020000df
:020000040000fa
:040194008a020000db
:020000040000fa
:040198008a020000d7
:020000040000fa
:04019c008a020000d3
:020000040000fa
:0401a0008a020000cf
:020000040000fa
:0401a4008a020000cb
:020000040000fa
:0401a8008a020000c7
:020000040000fa
:0401ac008a020000c3
:020000040000fa
:0401b0008a020000bf
:020000040000fa
:0401b4008a020000bb
:020000040000fa
:0401b8008a020000b7
:020000040000fa
:0401bc008a020000b3
:020000040000fa
:0401c0008a020000af
:020000040000fa
:0401c4008a020000ab
:020000040000fa
:0401c8008a020000a7
:020000040000fa
:0401cc008a020000a3
:020000040000fa
:0401d0008a0200009f
:020000040000fa
:0401d4008a0200009b
:020000040000fa
:0401d8008a02000097
:020000040000fa
:10020000efae20000e7f22000e01880000000000eb
:10021000000020000000e000020032000001200089
:100220002002880014000700240107000000e000fd
:1002300003003a00602d2200010020000200370078
:100240000000200001002000810f7000010032003a
:1002500014000700000020000000e000020032004f
:100260000000020000000000701802000000000002
:100270000040da000000fe004440a90060032000b6
:100280000000e0000300320000002000a001880010
:100290004440a800000006008a1f78008b1f7800e9
:1002a0000000060091018800800478000000eb0047
:1002b0001a003700e284440032a0b4009905ba0065
:1002c000e284440032a0b4009906ba00e2844400fb
:1002d00032a0b4000006eb00476fde00fd07b2005d
:1002e000636ce10003003a00ebff07000000eb0045
:1002f0000a003700606ce10004003a00005deb008a
:100300008b05e900fdff3e00040037006168e10055
:10031000010032000086eb000b00070019c7ba008d
:100320001905ba000e04e00003003a000a00e000dc
:10033000e0ff3a0000000600fe07b2009e018800c0
:100340008a047800f5ff3700395dba008b05e900b3
:100350000c003200295dba008b05e900080032006c
:100360000c00e00003003a00e284440032a0b40034
:10037000f5ff370019ddba008b05e900faff3a00f6
:100380008904e800e184440032a0b40000000600c3
:10039000809fbe00829fbe003400f8000000200055
:1003a000a00188000200fa008520a90090108000ba
:1003b00000407800004f780000c8bf008080fb003c
:1003c0009e417800429a200003f178000040e80046
:1003d00000e8b70000c8bf00e94f50000200360037
:1003e00090c0b30000e8b700ca82a8000021ef0067
:1003f00005e1a8000080fa003400f9004f01be00ba
:100400004f00be0000400600809fbe003400f80090
:1004100000002000a00188000200fa008700a90067
:10042000e010800000407800004f780050168000f7
:100430004400de006140600000c0ea0061406000ee
:100440000080fb00610060004400dd005116800068
:100450000140a10001007000501688000080fa00e1
:100460003400f9004f00be0000400600809fbe002f
:100470003400f80000002000a00188000000fa000d
:100480008460a90005e1a900ca82a90000c8bf00d4
:10049000e64f50001a003a0010c0b30001e8b70060
:1004a000409a200090407800e09a200001487800af
:1004b000509a200090407800f09a2000014878007f
:1004c000609a200090407800009b2000014878004e
:1004d000709a200090407800109b2000014878001e
:1004e000809a200090407800209b200001487800ee
:1004f000909a200090407800309b200001487800be
:100500000068ef000080fa003400f9004f00be00e0
:10051000004006000040da000000fe000a00fa0079
:10052000e20f500034003e0060578000e10f5000a1
:1005300003003200e20f500011003a000c003700b7
:10054000c32020000300e00001003a000040da0070
:100550000c02e200020035001422ef000de2a800b8
:100560000f42ab000d003a000f42a8000b0037000d
:10057000632120000300e00001003a000040da009f
:100580001602e200020035001e22ef0017e2a8006a
:100590001942ab0001003a001942a800820178001c
:1005a0000b0037003102fb00e10f500004003a005d
:1005b0000f22ab00feff3a008410880003003700d2
:1005c0001922ab00feff3a00d41088008301e90035
:1005d0000300e000f3ff3a00e10f500003003a008f
:1005e0000f02ab00feff32000b0037001902ab0018
:1005f000feff32000800370033002000b3bf9f0029
:10060000c0bf9f00d1bf9f00e2bf9f006a8057001c
:100610007b0907006fb99700020078000080fa009c
:10062000000006000602ab00feff3a000642ab00e7
:10063000fcff3a000662ab00faff3a000682ab000c
:10064000f8ff3a0009c2ab00f6ff3a0000000600ce
:100650000662a8000662ab00feff3a0008c2a900cd
:1006600000108000000006008040780000c0eb0011
:100670008180fb001110880008e2ab0007003a00ff
:1006800009c2ab00feff3a00e6ff07000040eb00a6
:100690000802e20001003d00e0cfb30000000600c8
:1006a00006a2a8000682a800000006000602a80014
:1006b000000006000642a800000006000000050039
:1006c0002800fa00889fbe008a9fbe008c9fbe0053
:1006d00007067800878669000c003b000304780059
:1006e0008704780008f0a10009f0a100840f5000f1
:1006f000858f5800860f5900890f5c000300330076
:100700000cf0a20001003a000cf0a100fa00070072
:100710006400e1005f003200780147006408e100f6
:10072000610032006c014700748557003200be0042
:100730001201be003a04be001a05be001e0390005e
:10074000be0a90008503530006003d000004fd0032
:100750008104fd000205fd008305fd008703ea001a
:10076000050378000df8a3000400320060041400b3
:10077000e0841c0060051d00e0851d006022b800bb
:100780007d0320000d38e1008006eb000b003900ee
:100790004433dd00f300b2008301730039003700f9
:1007a000848272000d027800e10664008b85d1001e
:1007b0000a85d3008984d3000884d3008703e90025
:1007c000f7ff3b0008004000898048000a0149000b
:1007d0008b81490004003b0060001000e08018009d
:1007e00060011900e08119000358a30009003200dc
:1007f0008d82720084827200610260008301d100e8
:100800000281d3008180d3000080d3000603e8007a
:100810001b0037000348a30017003a000600e00061
:10082000170034000603e9000d00a3000000480093
:100830008180480002014900838149000348a300e8
:100840000f003a000600e000090034000603e9004a
:100850000000400081804800020149008381490076
:1008600001003a000003eb000348a300f5ff32004b
:100870006022b80002003700848272006182660044
:100880007100070003f0a1000cf0a70003f0a00026
:10089000ad003700640147006408e10002003a003f
:1008a0000df8a300a5003a003200be001201be0000
:1008b000a5003700000000008f1fd100f3010700e2
:1008c0008f87e9000000e00000000600809feb0039
:1008d000ee0107008f87e9000000e000000006003d
:1008e0002800fa00889fbe008a9fbe008c9fbe0031
:1008f00003866b00800007006400e10044003200c2
:100900006408e1004a0032006100e1004600320064
:100910006108e10049003200ec0647006000b800c1
:100920003d02be003d03be00f48657006011b800d2
:100930003d04be003d05be007d0320000b003700d6
:100940000000a0008d06e9001300320004024200fe
:1009500085824a0006034b0087834b00000040005d
:100960008180480002014900838149000802520049
:1009700089825a000a035b008b835b00f0ff3b0017
:100980000802420089824a000a034b008b834b0015
:100990008d06e900edff3a008482720086827200c3
:1009a000f707b200878272000100320015002000b4
:1009b0001e0490003e0b900006035400e63fb0007a
:1009c0000368a300070032000000a7000500a00094
:1009d0008301d1000281d3008180d3000080d30045
:1009e0000603e8008301d1000281d3008180d30097
:1009f0000080d3000002eb000482d2001200070046
:100a000003f0a1000cf0a70003f0a0004e00370097
:100a1000640247006408e100480032003400be0070
:100a20003401be00f6ff37006108e10043003200e8
:100a30006011b8006000b800f1ff370003ff270025
:100a400002002000fbff37001800200057002000a4
:100a5000080453000d003d000600200097fc2f0005
:100a60000740e1001e0034008482720061026000d1
:100a70008301d1000281d3008180d3000080d300a4
:100a80000804e800f8ff3a00470020006104600015
:100a900005047400040464000d003200610040008d
:100aa000e080480060014900e081490003b8a500ea
:100ab000070032000603e8006538e10004003a0050
:100ac0008301d1000281d3008180d3000080d30054
:100ad000f87f20000830e1000300350008037800ab
:100ae0006000b8006011b8004433dd00f300b200cc
:100af0008301730000000600680447000294be00f2
:100b00000094be00fc0447008694be008494be009e
:100b100009007800a601070008007800a40107007a
:100b200099007800814f70000b003b000800be0068
:100b30007f0107004f00b10003003700f3ff2700db
:100b4000f2ff2f006110b9004f06be004f05be0036
:100b50004f04be000080fa00000006008103780008
:100b6000940007000001be006000b8000478a300f4
:100b700013003a006220e10015003e000d0039002c
:100b80008301d1000281d3008180d3008301d10091
:100b90000281d3008180d3008301d1000281d30080
:100ba0008180d3000538b000c42add00f300b20014
:100bb0008381720007f0a70003f0a0000000060088
:100bc000f3ff2700f2ff2f006110b900fbff370091
:100bd00003ff2700f7ff37001400fa00889fbe00cc
:100be0008a9fbe008c9fbe000004be000205be00ae
:100bf000680047000a90be000890be006c01070024
:100c00000070a7000bf0a1009e0990000e09900053
:100c1000fe0090006e0090009e0290003443200081
:100c2000848252000a00320010003c00b4fc2f0005
:100c30000428e1001f0034008301d1000281d300a9
:100c40008180d3000080d3008502e800faff3a00db
:100c50000b00e000bcff3b0060001000e0801800cb
:100c600060011900e0811900b7ff3700b4002000cf
:100c70000428e10007003d0000004000818048009a
:100c800002014900838149008502e900faff3a0028
:100c9000efff3700f3ff2700f2ff2f006110b900cc
:100ca0000b00e000a8ff3b0003002800020020002a
:100cb000010037006011b8006000b800a2ff3700e3
:100cc000881f7800030478000300e00007003d005f
:100cd00060001000e080180060011900e081190038
:100ce00002003b0001f02d00030037000400070064
:100cf00008f0a70003f0a0004f04780000000600f1
:100d0000889fbe000082700004027100048271009e
:100d10002400320036432000c50020008383cf002a
:100d20000a0039000541b1008283cf000700390075
:100d30000541b1008183cf00040039000541b100b5
:100d40008083cf00010039000541b10085c3530005
:100d50006022b800120032000a003b008482720058
:100d6000610260008301d1000281d3008180d30041
:100d70000080d3000603e8008743e800f7ff3a004d
:100d80000700370000004000818048000201490050
:100d9000838149000603e9008743e900f9ff3a002f
:100da00029ff07004f04be00000006006011b800d4
:100db000d3ff3700c70ade00f107b200f50fb2001b
:100dc00008003200e1cf4200020032000170a000b2
:100dd00024000500810f70000100320004080500a6
:100de00044000500810f700002003a001400050065
:100df0008502e9000000400081c04800fcff3b0084
:100e00000170a000240005002800fa00889fbe00a1
:100e10008a9fbe008c9fbe0003866b0036ff0700d2
:100e20000028a30064003a000128a30067003a00ec
:100e30000008a30062003a000108a30065003a0020
:100e40001e009000be08900081064000ed3fb100fa
:100e5000f4805700ee019000111ab8008e0990003e
:100e6000311bb8009e099000311cb800511db8001c
:100e7000f485570046000700fe0190003a00070085
:100e80008b85e8003e0007008e09900040000700b7
:100e9000ee019000340007008b85e8003800070061
:100ea0008e099000400007009e0990001b18b800b2
:100eb000890440000a854800fe01900034000700c4
:100ec0008b85e80038000700ee0190003000070035
:100ed0008e0990001b18b800890440000a8548005c
:100ee0000a98a30008003a000402420085824a00e2
:100ef00006034b0087834b0008044c0089844c0098
:100f00000a054d008d06e900848272008502730097
:100f10004c3add008502720001003200150020000d
:100f2000443ade001400b2004538de00cb45dd0057
:100f30000b007000c540de00cb4ddd008b807000e3
:100f40004549de00cb55dd000b017100c551de00c7
:100f50000d037800bcfe070003f0a1000cf0a70011
:100f600003f0a000f8fe37001b18b800850240000f
:100f700006834800e0834b0060044c000700370004
:100f80001b18b8000603400087834800faff3700ab
:100f90001b18b8008703400008844800e0844c0018
:100fa00060054d00000006001b18b8000804400052
:100fb00089844800faff37000108a300dffe3a00e9
:100fc0005800be005801be00e3ff37000008a30030
:100fd000dafe3a0009047800f9ff3700000000004b
:100fe00007f0a200b6fd3700889fbe008a9fbe00b2
:100ff0008c1f78000006eb00e00f5000e08f5800d7
:10100000e00f5900e08f590007003d006044b80030
:101010006055b8000000540081805c0002015d0052
:1010200083815d001c002000e00f5200e08f5a0019
:10103000e00f5b00e08f5b0007003d006044b800fc
:101040006055b8000402540085825c0006035d0010
:1010500087835d000c00a2007c0007000c00e0000c
:10106000060032006022b8006033b8000000520071
:1010700081805a0002015b0083815b004f0678008b
:101080004f05be004f04be0000000600889fbe0052
:101090008a9fbe008c9fbe000404be000605be00f1
:1010a000809fbe00829fbe002f00070004067800cc
:1010b0000800be000a01be002b000700840678006d
:1010c0004f03be004f02be008d4f76007fb09700e9
:1010d00013003300f0ff2f008b8f6b0006003b00e6
:1010e0000d0666000c00a7000a00370007f0a600f6
:1010f000100020000a003700880f5200898f5a0024
:101100008a0f5b008b8f5b0003003900100020000a
:1011100001003e000000200007f0a7000000ea00e8
:101120004f06be004f05be004f04be000000060083
:10113000e48240001078a3000700320064024000ff
:101140001178a3003400be001401be000400320078
:101150000330a700000006003500be001501be00e8
:101160000330a0000000060005ff27000582610093
:10117000070032000428e1000100320024000500cd
:101180000600070001003a004400050004080500bd
:1011900002000700f9ff3a00140005006f826100a9
:1011a0008102700085027100850272000000060055
:1011b000800078005002be005003be004439de00bb
:1011c000f700b200f37f2000030161000900320044
:1011d0000218e10016003a008501720083017300d5
:1011e000838173000008200015003a0040002000b1
:1011f000130037008501720083017300838173003f
:1012000005003a0004a8be0006a8be001000200099
:101210000b0037000201e9000402420085824a0007
:1012200006034b0087834b000748a300f9ff3200f9
:101230000740a00004a8be0006a8be0020002000b1
:10124000800098009200980000000600889fbe0071
:101250008a9fbe008c9fbe000404b8000506b8003b
:101260008904460060854e000606b8000a0546005f
:10127000e0854e000706b8008b054600040eb80056
:10128000890446000a854e00e0854d00050eb80031
:101290000a0546008b854e00060eb8008b054600f9
:1012a0000416b8000a0546008b854e000516b800e6
:1012b0008b054600041eb8008b0546000800be00e2
:1012c0000a01be004f06be004f05be004f04be001f
:1012d000000006008001780002003700b159780054
:1012e0000201e9000200e000fcff3a0000000600f5
:1012f0000c00fa00889fbe0000047800f0ff270071
:10130000d0bf9f008004eb0099bf9f0088bf9f0063
:10131000a8bf9f00200c2000b0bf9f00788157001d
:10132000cfb0970070805700d00007000fb897002b
:10133000094878008fb89700088050004f04be001d
:101340000080fa00000006000800fa00889fbe0036
:101350008a9fbe000084fb00d1c6b300814f5000bd
:10136000340036004b062000110009000b84d80021
:1013700081057800720040004300dd00498f2000a5
:10138000008044006022b8000600200007fe230011
:101390005001be004000be009bfe07000002be00e0
:1013a0000203be0084bf9f0095bf9f00a6bf9f00a1
:1013b000b7bf9f00aa002000110009008a85d8004d
:1013c00080057800e9854500c35ddd008b8544001c
:1013d0003b02be002b03be000fb897009fb89700da
:1013e0002fb99700bfb9970087fe07000002be0023
:1013f0000203be0084bf9f0095bf9f00a6bf9f0051
:10140000b7bf9f00110009000a84d80001047800ca
:101410004344dd00888444003902be002903be0035
:101420000fb897009fb897002fb99700bfb99700e2
:101430001d003700ea4f500013003600aa002000bc
:10144000110009000a84d8000105780069044000f1
:101450004344dd00498f2000088444006022b80026
:101460000600200007fe23003800be002801be0051
:1014700065fe07004355dd008a8444003902be0042
:101480002903be00080037004344dd00408f2000e0
:10149000080440006022b8000600200007fe230078
:1014a0003800be002801be0057fe07004f05be00f1
:1014b0004f04be000080fa00000006000800fa0099
:1014c000889fbe008a1f780000047800d0062000a4
:1014d0000800e0001f003d000804ea00800f5400ef
:1014e0000700340042062000110009000204d80061
:1014f000720040004300dd00498f20001d003700ce
:10150000ea0f540010003400a2002000110009006e
:101510000204d80001047800690040004300dd00a7
:10152000418f2000008040004344dd00888040005f
:101530003102be002103be005001be004000be00cb
:1015400031fe07003c0037004344dd00408f20009f
:1015500036003700800f540025003400420620007a
:10156000110009000204d800720040004300dd00b1
:101570004984200080814400aa0020001100090055
:101580008a00d8008000fd00e9804000c308dd002b
:10159000818044003102be002103be003300be0042
:1015a0001301be0018fe07000002be000203be00c9
:1015b00094bf9f00a5bf9f00b6bf9f00c7bf9f00fd
:1015c000110009000a04d800010478004344dd003a
:1015d000888444003902be002903be001fb897006a
:1015e000afb897003fb99700cfb99700d4ff370045
:1015f000ea0f54000b003400a20020001100090083
:101600000204d80001017800690040004300dd00b9
:1016100041842000008040004311dd0082804000b2
:10162000c3ff37004344dd0040842000080440002d
:101630003800be002801be004f0578004f04be00f0
:101640000080fa0000000600d001900002815100e5
:101650004240a900030034001001780001497800dd
:101660000208e80001007800000006006f02b000e8
:10167000889fbe008a9fbe008c9fbe008e1f780090
:1016800000067800b1af9f0092b79f006000b800dd
:101690006011b800d0af9f00e1af9f00f2af9f0094
:1016a00083b79f008006eb00c7043700bfa89700f0
:1016b0008100e800b1af9f0051c2b300814f5000dc
:1016c00003003a00bfa897000007eb0011003700a5
:1016d000bc0090000000fb000168a300070032007e
:1016e0000d017800800078000c007800d6ff07001c
:1016f0000000e00005003a00b30437008c007800d9
:10170000bd040700e10f4000af0432008d06e80081
:10171000ad0437000101780031407800d3c2b30036
:10172000834f50000c00320007003c00edc1510017
:10173000834f50000a003200ebc14100834f50003c
:101740000d003a000800370003c3b300834f500078
:1017500009003a00060037000e30a000edff370008
:101760000e00a000ebff37000e10a000e9ff3700cd
:101770000e20a000e7ff37000e18a3000100320082
:101780000e00a1000e38a300010032000e20a100bf
:101790008000fb000103b100e98f50000c003e0007
:1017a000020078008005eb006a59b900b005fb0023
:1017b0000b03b10082854500000178009000fb001a
:1017c0000103b100e98f5000f7ff36000800370031
:1017d0008005eb00a1c2b300814f500004003a0025
:1017e0009fb19700c305780093b79f000201e800fe
:1017f000e0c2b300924f100016003a000ee0a000c5
:1018000064405000d24f1000030032000200780004
:101810008001eb00080037009fb297004503780075
:1018200095b79f00e6b79f000201e8000c00370063
:101830006a19b9008281400000017800b000fb0005
:101840000103b100e98f5000f9ff3600e3b79f00b4
:10185000030037000ec0a0008003eb00e7b79f0035
:10186000820178003340780003017800c1c6b300dc
:10187000814f50002b003200b3af9f0014003c009a
:10188000e8c05000814f50002400320009003c00a5
:10189000ecc05000814f50002a003200ebc04000e5
:1018a000814f50008c0032000004e0004b043200f5
:1018b000a200370061c6b300814f50001b00320008
:1018c000e3c04000814f50009c003a0013003700f5
:1018d00031c7b300814f50001e00320007003c00aa
:1018e000e4c05000814f5000130032008140e800f6
:1018f000814f500091003a001200370051c7b300e9
:10190000814f500092003200e3c04000814f5000f0
:101910008a003a00e0cf9f000c003700e0cf9f0024
:101920008d0037000e40a000cdff3700e0cf9f00b4
:101930000ea0a00088003700e0cf9f000e60a0003e
:1019400085003700e0cf9f000e50a0000e70a00071
:1019500081003700e0cf9f009fb0970041007800e2
:1019600091b79f00000478000000e00001003a00f9
:1019700008a92000880078000000eb000100370073
:101980000000e800614178000204e000fcff3a003a
:10199000800478006fb197000200e000030032007d
:1019a000890f510001003100820478000005eb002e
:1019b000898f5500010036000985550068076700ca
:1019c0002a003a00110037003c0090000068a30094
:1019d000070032000d017800010220000c007800a1
:1019e00019ff07000000e00006003a00060037007b
:1019f0008c00780000022000ff030700e10f400088
:101a0000010032008d06e8000a05e9000a00e00046
:101a1000edff3a000085eb00140037003c00900019
:101a20000068a3000900320008007800b000fb0045
:101a3000000478000d0178000c00780002ff070018
:101a40000000e00008003a00080037008800780035
:101a50003100fb00010478008c007800e6030700e9
:101a6000e10f4000010032008d06e8000900780017
:101a70008004e9000000e000e8ff3a000e00e0000a
:101a8000d1033200110037003c0090000068a30031
:101a9000070032000d017800010220000c007800e0
:101aa000e9fe07000000e00006003a0006003700eb
:101ab0008c00780000022000cf030700e10f4000f7
:101ac000010032008d06e8000a05e9000a00e00086
:101ad000edff3a00bc0337009fb197004302780046
:101ae00093b79f00cfa2de00482bdd004820de0028
:101af00000007300c828de00e0cf9f000e48a3005e
:101b0000080032000004e00006003200e14f40000f
:101b100004003200f0cf9f0084d79f0029002000ee
:101b200002003700f4cf9f0019002000e7fc2f00cf
:101b30008f8343000704e80096ff3700e0cf9f0043
:101b4000e8fc2f000f0444001900200091ff37002b
:101b5000e0cf9f000e0cb3000170200081006700f1
:101b6000700067000100e0001c0232000ec8a300f4
:101b70000200320061002000e1b79f001fb1970012
:101b8000e80051000000e0000900320091b79f001a
:101b9000810278005503be004502be00a4b79f0035
:101ba000b5b79f00c6b79f00d7b79f0007003700a3
:101bb00091b79f005101be004100be00a0b79f0039
:101bc000b1b79f00c2b79f00d3b79f006022b80093
:101bd0006033b8002fb09700bfb097004fb19700a7
:101be000dfb1970034fb07000000e0000a003d0071
:101bf0002fb29700bfb297004fb39700dfb39700a3
:101c000007f0a200a4b79f00b5b79f00c6b79f001a
:101c1000d7b79f003e00b3000000eb0090af9f00dd
:101c20006022b8006033b8002fb09700bfb09700b3
:101c30004fb19700dfb19700f30307000000e00009
:101c40003400320024fd2f000f0242002fb0970015
:101c5000bfb097004fb19700dfb197002004070095
:101c60001fa897000000e9006302b900a20020004d
:101c7000110009000202d80090af9f000000e000b0
:101c800002003d000000e90090af9f001fac9700ec
:101c90000800ea0009fe07002fb29700bfb29700c4
:101ca0004fb39700dfb3970057fc07000002be0058
:101cb0000203be00d4af9f00e5af9f00f6af9f00c8
:101cc00087b79f006022b8000600200007ff2300ae
:101cd000f9fa07000000e00002003d000804e900f6
:101ce0000b0037006022b8000600200047022400e5
:101cf0005fa89700efa897007fa997008fb1970082
:101d0000f2fa07000000e000020035000804e800d5
:101d100098af9f00efb29700ec8f52000f003c008d
:101d20000540780088fd07000002be000203be00e7
:101d30002fb09700bfb097004fb19700dfb1970069
:101d40005ffa07000002be000203be00a4b79f00b6
:101d5000b5b79f00c6b79f00d7b79f001fac9700cd
:101d6000e90f540015003c006022b8006033b80051
:101d70002fb09700bfb097004fb19700dfb1970029
:101d8000a10307000000e000310032002fb09700ef
:101d9000bfb097004fb19700dfb197009f030700d6
:101da000e00f5000e08f5800e00f5900e08f59001d
:101db00027003a00e10f54002500340054692d003b
:101dc00065822e00b6e02200170124005fa897006c
:101dd000efa897007fa997008fb19700b6fa070088
:101de0000000e00002003d006904540001003700db
:101df0006804540098af9f001fa89700affd07002c
:101e00000002be000203be00d4af9f00e5af9f00fa
:101e1000f6af9f0087b79f002fb09700bfb0970025
:101e20004fb19700dfb19700adfa07007b030700c1
:101e30000004be006000b8006011b800a0b79f00a9
:101e4000b1b79f00c2b79f00d3b79f0016003700fd
:101e50002fb09700bfb097004fb19700dfb1970048
:101e60006e0307000004be00d0fb07000002be00a6
:101e70000203be002fb09700bfb097004fb197008c
:101e8000dfb1970056fc07000002be000203be004f
:101e9000a4b79f00b5b79f00c6b79f00d7b79f00f4
:101ea0000000eb0090af9f0081a9200010c0b3009c
:101eb00005003700e4804000b10f5400a18f5c00a2
:101ec000030039000040e800ea4f5000f9ff3a00f3
:101ed000e0cf9f009fa8970081805500efb2970048
:101ee000858050000000fb00008550000500e000e8
:101ef000010032000a05e9006300670001003200ba
:101f00000a05e9000e28a3003900320061016700cc
:101f10000e18a3000f0032003c0090000068a300e0
:101f200006003200b10220000200e0000100320091
:101f30008180e8000d0178000d003700b00220001c
:101f40000200e000010032000080e8008c00780010
:101f50000e0037000200e000220032003c0090003a
:101f60000068a300070032000d0178000102200084
:101f70000c007800b4fd07000000e00006003a0005
:101f8000180037008c007800000220009a02070039
:101f9000e10f4000130032008d06e8001100370009
:101fa0003c0090000068a300070032000d0178009b
:101fb000010320000c007800a3fd07000000e000f2
:101fc00006003a00060037008c007800000320006d
:101fd00089020700e10f4000010032008d06e80091
:101fe0000a05e9000a00e000edff3c005700370059
:101ff0000e38a30014003a00110037003c00900096
:102000000068a300070032000d01780001022000e3
:102010000c0078008cfd07000000e00006003a008c
:10202000060037008c0078000002200072020700d2
:10203000e10f4000010032008d06e8000a05e900ca
:102040000a00e000edff3c00610167000e18a300ec
:102050000e0032003c0090000068a3000500320032
:10206000b10220000200e000220032008180e8007e
:1020700020003700b00220000200e0000100320022
:102080000080e8008c0078002c0037000200e0009f
:102090002e0032003c0090000068a30003003200d4
:1020a0000d01780001022000130037008c00780039
:1020b00000022000210037003c01900080a9200090
:1020c0008100fb000268a30010003200c208dd009e
:1020d000810040001101be000800be001d03070082
:1020e000a2002000030020002a03070001032000b3
:1020f000808040000d0178000c00780052fd070040
:102100000000e00010003a0010003700c208dd00b7
:10211000810040001101be000800be000d03070051
:10212000a2002000030020001a0307000203200081
:10213000000141008c007800020078002e020700a8
:10214000e10f4000010032008d06e8006fc89700e3
:102150008040e900e1cf9f000004e000d6ff3a0094
:10216000130037003c0090000068a3000700320015
:102170000d017800010320000c00780032fd0700fb
:102180000000e00006003a00060037008c007800ee
:102190000003200018020700e10f40000100320098
:1021a0008d06e8001fa897000000e90090af9f008f
:1021b0001fa897000000e000eaff3c006fb3970003
:1021c000e80f53000300340080c0b300e0cf9f004d
:1021d00002003700cfeb9700e7cf9f006fc8970052
:1021e0008005fb00efb097008b8550000004e000f5
:1021f000100032003c0090000068a300070032008d
:102200000d017800e10220000c0078000efd0700af
:102210000000e00006003a00060037008c0078005d
:10222000e0022000f4010700e10f4000010032004d
:102230008d06e8006fc997000200fb009ffc0700b5
:102240000002be000203be002fb09700bfb097008f
:102250004fb19700dfb19700ebfa07006f0207005c
:102260002d0037003c01900081a920000000fb00f8
:102270000268a300100032004200dd0080804000b0
:102280001101be000800be00b2020700a20020003b
:1022900003002000bf0207000103200080804000ef
:1022a0000d0178000c007800e7fc07000000e0005a
:1022b00010003a00100037004200dd00808040002e
:1022c0001101be000800be00a2020700a20020000b
:1022d00003002000af0207000203200000014100bc
:1022e0008c00780002007800c3010700e10f400075
:1022f000010032008d06e800efc997000300fb00e3
:102300004200dd0081a92000008040001001be00d5
:102310000800be009f0207000004be00efc897003f
:102320000140e900e0cf9f000104e000cdff3a004a
:10233000110037003c0090000068a3000700320045
:102340000d017800010320000c007800befc07009e
:102350000000e00006003a00060037008c0078001c
:1023600000032000a4010700e10f4000010032003b
:102370008d06e8008b05e9000b00e000edff3a0058
:102380000e38a300900132000a00e0008e013400f4
:102390003c0090000068a300070032000d017800a7
:1023a000010220000c007800a7fc07000000e000fc
:1023b00006003a00060037008c007800000220007a
:1023c0008d010700e10f4000010032008d06e8009a
:1023d0000a05e900eeff3a007b0137008e00780025
:1023e000010cb20011003a000000e00004003200cd
:1023f0001fb297004404be0094b79f00040037004a
:102400009fb297004504780095b79f00cfc4de00c7
:10241000e00f5400e08f5c000e003d003e00b30072
:1024200060041400e0841c000a0037000000e00093
:10243000040032001fb397004604be0096b79f0009
:10244000040037009fb397004704780097b79f00b8
:102450008004eb006fb097000000e00006003a0037
:102460000880740000f0a7000000ea000000e90006
:102470004f00de00e0b79f008e007800010cb20034
:10248000c1af9f0000042000808f50002300320065
:1024900003003c000100e000080032002d0037007e
:1024a000000820004fa99700800f51000d00320056
:1024b000000c2000800f510026003a0081a9200066
:1024c00010c0b300e4804000b10f5400a18f5c0045
:1024d0001f0039000040e800ea4f5000f9ff3a00c1
:1024e0001b00370010c0b3000201200003002000d1
:1024f000820f5400838f5c0015003900441add0000
:10250000cc11de00830172004411dd000040e800c0
:10251000e84f5000f6ff3a000d00370010c0b3003e
:102520008200200003002000820f5400838f5c0093
:1025300007003900c31add00cd11de00838172006f
:102540004311dd000040e800eb4f5000f6ff3a0079
:10255000e0cf9f006fcb97000600fb00efb3970022
:10256000870f500002003d00e7cf9f0004003700b6
:10257000efb09700808f500001003d00e0b79f0052
:102580000b00e0000300320063006700010032002e
:102590008b05e9000ee8a300060032006fb197003a
:1025a000828f5500020034008285550001003700fb
:1025b0008005eb00efc997000300fb000002eb0071
:1025c000a4b79f00808f55000200340000805500a2
:1025d000a0b79f000e28a3003c00320061016700f5
:1025e0000e18a3000f0032003c0090000068a3000a
:1025f00006003200b10220000200e00001003200bb
:102600008180e8000d0178000d003700b002200045
:102610000200e000010032000080e8008c00780039
:102620000e0037000200e000100032003c00900075
:102630000068a300070032000d01780001022000ad
:102640000c00780000fc07000000e00006003a00e3
:10265000060037008c00780000022000e60007002a
:10266000e10f4000010032008d06e800afb2970094
:102670000500e00052003200050578003c009000a3
:102680000068a300070032000d017800010320005c
:102690000c007800ecfb07000000e00006003a00a8
:1026a000060037008c00780000032000d2000700ed
:1026b000e10f4000010032008d06e8000a05e90044
:1026c000eeff3a00aab79f003d0037002fb39700f6
:1026d0000600e000160032000e38a30014003a0095
:1026e000060578003c0090000068a3000700320057
:1026f0000d017800010220000c007800d2fb0700d9
:102700000000e00006003a00060037008c00780068
:1027100000022000b8000700e10f40000100320075
:102720008d06e8000a05e900eeff3a00aab79f000f
:10273000610167000e18a3000f0032003c009000fa
:102740000068a30006003200b10220000200e00091
:10275000010032008180e8000d0178000d00370093
:10276000b00220000200e000010032000080e8001a
:102770008c0078000e0037000200e00010003200ec
:102780003c0090000068a300070032000d017800b3
:10279000010220000c007800abfb07000000e00005
:1027a00006003a00060037008c0078000002200086
:1027b00091000700e10f4000010032008d06e800a3
:1027c000efb397000702e9006320b9000001780029
:1027d000a2af9f004222dd0080a92000000242003b
:1027e00004057800cfad97005c003700efb197008b
:1027f0008301e900e3b79f0000042000808f5500ab
:102800003700320003003c000b00e00007003200fc
:102810003d00370000082000808f55002000320066
:10282000000c2000808f550037003a000e48a300ae
:10283000100032001a02be000401be000800be00f3
:10284000f4b79f0085bf9f0042010700e0cf9f00c3
:102850000000fb00cf80de007fb297008fba9700a8
:102860000401be004e0107000004540081845c0096
:10287000070037001a017800110009000284d8000f
:10288000a2002000110009000280d800e1cf9f00c3
:102890006fca97000443b000e4cf9f001a003700ce
:1028a000f0a720000e58a30001003200e0a620008f
:1028b00081a92000810055000801be008100e900c7
:1028c000030033008301d1000281d300fbff3700f6
:1028d0006f01610060417900e2cf9f000a0037007c
:1028e0000800be00afaa97008502e900030033008c
:1028f0008100d1000080d300fbff370067406000fb
:102900000043b000e0cf9f00bc0090006fcb970069
:102910000600fb000168a300070032000d017800eb
:10292000800078000c00780047fb07000000e00002
:1029300005003a00050037008c0078002e000700e3
:10294000e10f4000010032008d06e800afab9700b8
:10295000e3835300a7af9f00640555006fb0970055
:102960000000e000a1ff3a000e38a300160032007c
:10297000afb097000100e0001300340001057800bb
:102980003c0090000068a300070032000d017800b1
:10299000010220000c0078002bfb07000000e00083
:1029a00006003a00060037008c0078000002200084
:1029b00011000700e10f4000010032008d06e80021
:1029c0000a05e900eeff3a003fa99700124078009f
:1029d000e0cf9f000004e00034fb3a000d007800d7
:1029e0004f0778004f06be004f05be004f04be00e3
:1029f0006f02b10000000600889fbe00010478004d
:102a0000b80090008084eb000118a3003a00320067
:102a1000180190000198a30002003a000200e000b3
:102a200035003a000190a00031049800800478003d
:102a3000f90fb2000200e00002003a002800900006
:102a4000000c7800ea8f540005003a000178a300da
:102a500003003a0088007800d0002000e6ff07005d
:102a600018009000d8009000810f50000b00320039
:102a70000000e80010049800180078000948780069
:102a8000000ce80011c0b30060ae200001487800df
:102a9000ea8f540018003a000500370088007800db
:102aa0000940780017000700800478001200370002
:102ab000380090000088a3000f0032001801900039
:102ac000a80090004800900094f60700980090003d
:102ad000810f500004003200380090000003b30062
:102ae000300498008084eb000000eb001004980094
:102af00028009000000c7800090078004f04be0008
:102b0000000006000200fa00889fbe00a0ff9f00a0
:102b100001047800380090000068a30033003a00f8
:102b2000e200600005003a000003b30030049800a2
:102b3000110498000080eb002e003700d8049000ac
:102b40000900e00006003a0012002000e68057006d
:102b50004800900071f60700190498002300370020
:102b6000a80090000100e00008003a0091ae2000ab
:102b700021049800010c78002100200051049800e5
:102b8000110498000030a000300498001801900053
:102b9000a80090004800900060f607002800900010
:102ba0008080eb0011049800aff89700014878008e
:102bb000000ce8002ff89700ea4f50000b003a0095
:102bc000380090000088a30008003200180190002f
:102bd000a80090004800900050f607000000eb00ad
:102be00010049800a8009000010c7800aff897003e
:102bf0000100fb004f04be000080fa000000060048
:102c000000c0da0000000600801feb001ff907007b
:102c10008f87e9000000e000000006001400fa00c1
:102c2000889fbe008a9fbe008c9fbe000004be002d
:102c30000205be00680047000a90be000890be0072
:102c40005bf907000070a7000bf0a1000bf8a300d0
:102c500020003a009e0990000e099000fe009000ae
:102c60006e0090009e029000344320008482520047
:102c7000b5f732000a003c00b4fc2f000428e10044
:102c8000140034008301d1000281d3008180d3007d
:102c90000080d3008502e800faff3a00aaf7370067
:102ca000b40020000428e10007003c0000004000c0
:102cb0008180480002014900838149008502e900c2
:102cc000faff3a00a0f737000300280002002000b6
:102cd000010037006011b8006000b8009af73700b3
:102ce0001400fa00889fbe008a9fbe008c9fbe0021
:102cf000040678000004be000205be00680047001c
:102d00000a90be000890be0029f907006200e100a9
:102d10000800be000a01be00040020000b003a00bb
:102d20001e029000e43fb1006e009000fe00900093
:102d30000e0990009e099000f300b20005fe2300ea
:102d4000858171000bf0a70003f0a000040e78004d
:102d50007df737006022b800060220000000d00096
:102d60008180d2000482d2008582d2000000a000bf
:102d70000202520083825a00030031000202420024
:102d800083824a000000a1000603e900f3ff3a0035
:102d900000000600efff07000400be000000060070
:102da000020ab900001bb9000200b800810042000d
:082db000810043000000060051
:020000040000fa
:102db8005620000044430000004100002044000069
:102dc800430000007541000044430000006d00000e
:102dd80041440000430000004f6800006d320000cd
:102de800006b00004f6d0000320000004f680000cb
:102df8006d340000006b00004f6d000034000000cf
:102e0800252b0000303900002e300000662000001d
:0c2e180025780000000a00000000000007
:020000040000fa
:102e24002800fa00001798002167980022179800dc
:102e3400331798000e109000104078000080fb00bb
:102e4400c800dd000e1090000000e800104078007b
:102e54000080fb0000804000400798000e109000a6
:102e64000080e800104078000080fb006f006000e4
:102e7400c800dd000e109000630040001040780090
:102e84000080fb0000804000500798000e10900066
:102e940064004000104078000080fb00c800dd00a2
:102ea4000e10900065004000104078000080fb0088
:102eb40000804000600798000e1090000080e80039
:102ec400104078000080fb004700de00604f98004f
:102ed4006e0090008000eb006011b800009fbe00ff
:102ee4000297be006e489000e14f50000b003a007c
:102ef4003e00be002e01be0070f707006022b8003d
:102f040006002400a705240034f8070031f7070061
:102f1400009fbe000297be00070037006000b800a3
:102f24006011b8001e1f50001e9f58001e1f59003c
:102f34001e8f59006e00b1005e0090000000e80092
:102f44000000d1008000eb006011b800000f980071
:102f5400110f9800220f9800330f98004e00900034
:102f64008000eb006011b8000e0a90009e0a9000e9
:102f74002e0b9000be0b90000000520081805a007e
:102f840002015b0083815b00000f9800110f980021
:102f9400220f9800330f9800e461290005002000f7
:102fa4006033b8000e0890009e0890002e0990002f
:102fb400be0990000bf80700000f9800110f98004d
:102fc400220f9800330f98000e0a90009e0a90007a
:102fd4002e0b9000be0b90003e005200be805a00a3
:102fe4003e015b009e815b006e00b100000f980003
:102ff400110f9800220f9800330f98000e089000cc
:103004009e0890002e099000be0990002bf707003f
:10301400400f9800510f9800620f9800730f9800aa
:103024006022b80006a02200b70a2c004e089000c7
:10303400de0890006e099000fe09900027f6070054
:10304400400f9800510f9800620f9800730f98007a
:103054002e6090000080fb008000eb0052f7070018
:103064000203be000002be004e089000de0890007d
:103074006e099000fe09900018f60700400f9800b2
:10308400510f9800620f9800730f98002e10900053
:10309400be109000b0f607000203be000002be009e
:1030a4004e089000de0890006e099000fe09900022
:1030b4000af60700400f9800510f9800620f98001d
:1030c400730f98004e089000de0890006e0990007f
:1030d400fe0990000080fa00000006000000fa00db
:1030e400889fbe008a9fbe00f10407001a050700ee
:1030f40000002200c1012000e10507000041eb00af
:103104008040eb000040eb00e80307000041eb00c7
:103114008040eb0010c0b300e40307000041eb0063
:103124008040eb0020c0b300e00307000041eb0047
:103134008040eb0030c0b300dc030700e2c2a9000a
:103144000040220001002000cd050700e2c2a800d3
:10315400cb02a800cb22a80070c0b30030e8b700af
:1031640020c0b3002fe8b70090c3b3002ee8b70027
:1031740010c0b3002de8b70010c0b30031e8b700a9
:103184003268ef00e061290001002000504e880001
:10319400614e880070f92f00f1ff2f00304e880037
:1031a400414e8800e49c20006000b800020020002a
:1031b40043072400009abe000292be00649d2000d2
:1031c400b0092900618d210042272c0013ff230040
:1031d400009abe000292be00e49d20006000b80088
:1031e40002002000e3032400009abe000292be0005
:1031f400649e2000c0852600810f260032862000b0
:1032040003ff2300009abe000292be00e49e200049
:103214006000b8000200200093062400009abe005b
:103224000292be00649f20009084240041da2600ac
:10323400c29f200003ff2300009abe000292be003a
:10324400e49f20006000b8006011b800009abe003e
:103254000292be0064a02000d081230071462400a5
:1032640092f6260013ff2300009abe000292be00cd
:10327400e4a020006000b8006011b800009abe000d
:103284000292be0064a120007012230081c02a00b3
:10329400c2a1250003ff2300009abe000292be00d3
:1032a400e4a120006000b8006011b800009abe00dc
:1032b4000292be0064a2200040fb21009122220061
:1032c40032ac2a0023ff2300009abe000292be0003
:1032d400e4a220006000b8006011b800009abe00ab
:1032e4000292be0064a32000a0572a00c132240029
:1032f400c2b12e00e3fe2300009abe000292be007b
:10330400e4a520006000b80002002000430424006b
:10331400009abe000292be0064a6200030b42100d0
:1033240001d820008208290013ff2300009abe0060
:103334000292be00e4a420006000b8000200200055
:1033440043042400009abe000292be0064a520003b
:1033540060422e0031e82900d2ac2a0013ff23007a
:10336400009abe000292be00e4a320006000b800f0
:103374006011b800009abe000292be0064a420004e
:1033840030b22d0091ef2700a2c62b0013ff2300bb
:10339400009abe000292be00030037000000000045
:1033a4000100370000000000210480000004200018
:1033b400008060000000e0001a00320084c0a90010
:1033c400501680004200de006140600000c0ea0048
:1033d400614060000080fb00610060004200dd008d
:1033e400511680000120a1000100700050168800d1
:1033f400dd030700e0418800d1418000f0418000f6
:103404000081ea00e04180000000610001007000da
:10341400d0418800e0418000f041880010c0b30032
:1034240035e8b700d0418000610060000000e00092
:103434000b0032003a08a900318320009140780043
:1034440037c8bf0080cf50000300310033c8bf002d
:103454000040e80033e8b70010c0b30036e8b70016
:10346400d0418000620060000000e00009003200ea
:103474003a28a90033c8bf000004e000030032006a
:1034840033c8bf000040e90033e8b70010c0b30000
:1034940036e8b700d0418000700060000000e00012
:1034a400080032003a88a9003468ef0010c0b30065
:1034b40036e8b70020c0b30037e8b70037c8bf000c
:1034c40033e8b700d1418000000220000080600092
:1034d4000000e000080032003aa8a90020c0b300b0
:1034e40034e8b70010c0b30036e8b7003768ef001f
:1034f40037c8bf0033e8b700d14180000004200082
:10350400008060000000e000090032003ac8a90011
:1035140010c0b30034e8b70010c0b30036e8b700f9
:1035240010c0b30037e8b70037c8bf0033e8b700ae
:10353400d141800000082000008060000000e0000d
:10354400070032003ae8a90030c0b30034e8b700fd
:1035540010c0b30036e8b70030c0b30037e8b70096
:10356400d141800000102000008060000000e000d5
:10357400070032003b08a90040c0b30034e8b7009c
:1035840010c0b30036e8b70030c0b30037e8b70066
:1035940035c8bf00e14f500019003a003568ef000c
:1035a400009c2000104078000041780011c0b30056
:1035b40030c0b300bd020700109c2000104078000a
:1035c4000041780011c0b30020c0b300b702070067
:1035d400209c2000104078000041780011c0b30006
:1035e40010c0b300b1020700309c200010407800e6
:1035f4000041780011c0b3000040eb00ab020700ab
:1036040036c8bf00e14f500025013a003668ef008c
:1036140010c0b30035e8b70010c0b3002de8b70000
:1036240034c8bf000004e00047003a0020c0b300e3
:1036340031e8b70020c0b3002fe8b70070c0b30072
:1036440030e8b70052002000c16d2900009c200022
:103654001ff7070033c8bf000004e00012003a005f
:1036640050c3b3002ee8b70010c0b30032e8b7006f
:1036740010c0b30038e8b700e09d20005001be0040
:103684004000be00a4812000009abe000292be0049
:10369400609d20005001be004000be002482200036
:1036a400009abe000292be0033c8bf00e14f500032
:1036b40011003a0050c3b3002ee8b7003268ef009f
:1036c40020c0b30038e8b700e09d20005001be00e0
:1036d4004000be00a4812000009abe000292be00f9
:1036e400609e20005001be004000be0024822000e5
:1036f400009abe000292be0033c8bf00e24f5000e1
:1037040011003a0090c3b3002ee8b7003268ef000e
:1037140030c0b30038e8b700e09e20005001be007e
:103724004000be00a4812000009abe000292be00a8
:10373400609f20005001be004000be002482200093
:10374400009abe000292be0034c8bf00e24f50008f
:103754001e003a0020c0b30031e8b7003068ef0023
:1037640020c0b3002fe8b70052002000116e2900da
:10377400009c2000d6f6070033c8bf000004e00018
:1037840012003a0050c3b3002ee8b70010c0b300d3
:1037940032e8b70010c0b30038e8b700e0a3200057
:1037a4005001be004000be00a4812000009abe006b
:1037b4000292be0060a420005001be004000be0082
:1037c40024822000009abe000292be0034c8bf00ca
:1037d400e14f500036003a0020c0b30031e8b70092
:1037e40010c0b30030e8b70020c0b3002fe8b70022
:1037f40010c0b30032e8b70033c8bf000004e000d3
:1038040014003a0050c3b3002ee8b7005200200061
:10381400616e2900009c2000adf6070030c0b300a3
:1038240038e8b700e0a520005001be004000be000b
:10383400a4812000009abe000292be0060a620006f
:103844005001be004000be0024822000009abe0049
:103854000292be0033c8bf00e14f500014003a008a
:1038640050c9b3002ee8b70052002000b16e290001
:10387400009c200096f6070020c0b30038e8b7008b
:10388400e0a420005001be004000be00a48120003e
:10389400009abe000292be0060a520005001be0046
:1038a4004000be0024822000009abe000292be00a6
:1038b40034c8bf00e34f50003b003a0070c0b3006f
:1038c40030e8b70020c0b3002fe8b70033c8bf000a
:1038d4000004e0000b003a003168ef0050c6b3006a
:1038e4002ee8b70010c0b30032e8b7005200200041
:1038f400016f2900009c200075f6070040c0b3004a
:1039040038e8b70033c8bf00e14f50000a003a005e
:103914003168ef0050c6b3002ee8b7003268ef00fc
:1039240052002000016f2900009c200068f6070067
:1039340050c0b30038e8b70033c8bf00e24f5000ae
:103944000b003a0010c0b30031e8b70050c6b30012
:103954002ee8b7003268ef0052002000516f2900b2
:10396400009c20005af6070030c0b30038e8b700c6
:1039740033c8bf00e34f50000b003a0020c0b3002f
:1039840031e8b70050c6b3002ee8b7003268ef0044
:1039940052002000516f2900009c20004cf60700c3
:1039a40040c0b30038e8b70034c8bf00e44f50004b
:1039b4003b003a0040c0b30030e8b70050c0b30049
:1039c4002fe8b70033c8bf000004e0000b003a0042
:1039d4003168ef0050c6b3002ee8b70010c0b30042
:1039e40032e8b70052002000a16f2900009c20009b
:1039f40037f6070040c0b30038e8b70033c8bf004b
:103a0400e14f50000a003a003168ef0050c6b3009d
:103a14002ee8b7003268ef0052002000a16f2900a1
:103a2400009c20002af6070050c0b30038e8b70015
:103a340033c8bf00e24f50000b003a0010c0b3007f
:103a440031e8b70050c6b3002ee8b7003268ef0083
:103a540052002000f16f2900009c20001cf6070092
:103a640030c0b30038e8b70033c8bf00e34f50009c
:103a74000b003a0020c0b30031e8b70050c6b300d1
:103a84002ee8b7003268ef0052002000f16f2900e1
:103a9400009c20000ef6070040c0b30038e8b700d1
:103aa40001c8bf00e14f50003cfe3a000168ef003e
:103ab400e2c2a9002bc8bf000004e0000c003a00d9
:103ac4002dc8bf00e14f500003003a002d68ef00fd
:103ad4002ec8bf00f1010700218320009140780027
:103ae4002fc8bf000702070031c8bf001602070035
:103af4002bc8bf00e14f500012003a000200200022
:103b040003f8230011c0b300e09a2000c4fc0700ae
:103b1400a4802000009abe000292be00a080200073
:103b24005001be004000be006022b8000600240020
:103b3400f7082400b3f40700a4802000009abe0014
:103b44000292be002bc8bf00e24f500006003a00ac
:103b5400218320009140780030c8bf00e9010700ac
:103b640090c5b300a80107002bc8bf00e34f500065
:103b740022003a000200200003f8230011c0b30021
:103b8400e09a2000a6fc070024802000009abe00d2
:103b94000292be00208020005001be004000be0002
:103ba4006022b80006002400f708240095f40700fa
:103bb40024802000009abe000292be0020802000d3
:103bc4003004be002005be00a08020005001be00cd
:103bd4004000be000203be000002be000800be009a
:103be4000a01be00fdf4070024812000009abe00f3
:103bf4000292be0010c0b3002ce8b70000402200bf
:103c0400010020001e030700e2c2a8002bc8bf0069
:103c14000040e8002be8b7002bc8bf00e44f500079
:103c240001003a002b68ef002cc8bf000004e0003c
:103c3400dcfd32002c68ef00208120005001be0022
:103c44004000be003a08f800809fbe00829fbe007c
:103c540040702900801f7800409b2000a3f50700d6
:103c6400ec875700208120003004be002005be00f0
:103c7400a08120005001be004000be000203be002f
:103c84000002be000800be000a01be008bf207005d
:103c940024812000009abe000292be0020812000f0
:103ca4003004be002005be00208220005001be006a
:103cb4004000be000203be000002be000800be00b9
:103cc4000a01be004ff4070024812000009abe00c0
:103cd4000292be00208120005001be004000be00c0
:103ce4003a08f800809fbe00829fbe004070290001
:103cf400801f7800409b20007cf50700ec8757006c
:103d0400409b200058010700f0702900560107006d
:103d1400409b200090407800d0c2b30080cf500078
:103d240004003a00a1c0b3000040eb00ad0007005e
:103d340003003700f1c0b3000040eb00a900070006
:103d4400208120005001be004000be0019c0b30015
:103d54006022b80086b12f0047162400daf207006b
:103d64000000e00001003c008044eb0020812000c2
:103d74005001be004000be0018c0b3006022b8006d
:103d840086b12f0047162c00caf207000000e0009d
:103d9400010035000044eb0008c074000004e0009a
:103da4001800320010002000004288001100370083
:103db40038c8bf008080fb0000428000808f500024
:103dc40005003a000042800000407800a1c8b3001a
:103dd400840007000400370000428000004078009f
:103de400a1c0b3007f000700004280000000e8008b
:103df4000042880000428000e70f5000ecff3600cc
:103e040069fd370010002000004288001d003700c3
:103e140038c8bf008080fb0000428000808f5000c3
:103e24000c003a0000428000419b20006140780071
:103e34008040780000cdb30000c040000074a000b2
:103e44008040780000428000004078006500070050
:103e54000900370000428000419b20006140780047
:103e64008040780000cdb30080c040000042800054
:103e7400004078005b000700004280000000e8007a
:103e84000042880000428000e70f5000e0ff360047
:103e940045fd37000200fa00e1f1070002f20700d5
:103ea4000000000030108000610060000000e000ad
:103eb400fcff3a00f0c4b300eaf10700d8f10700b0
:103ec400e2f10700004f7800f4f10700d4f1070095
:103ed400f7f107000000000030108000640060006b
:103ee4000000e000fcff3a001e4078000080fa0069
:103ef400000006000200fa00004f7800c8f1070035
:103f0400e9f107000000000030108000610060004b
:103f14000000e000fcff3a00c1f10700e0c4b30078
:103f2400d0f10700bef107001e407800cdf1070074
:103f3400bbf10700def10700000000003010800034
:103f4400640060000000e000fcff3a000080fa001a
:103f5400000006000400fa0010079800c0052000c5
:103f64000100200046020700d722a9000040eb0010
:103f7400004f7800120037001e0090000000e0009f
:103f840002003d00d742a80001003700d742a90033
:103f94001e0090000000400010079800c00520009b
:103fa4000100200036020700d702a800c005200047
:103fb4000100200032020700d702a9001e4fe800ca
:103fc4001e407800ef4f5000ebff3600c005200084
:103fd400010020002a020700d722a8000080fa006e
:103fe400000006000400fa002047980031479800ba
:103ff4002e4090000080fb000000e800000f7800d5
:104004001e0078004800dd00000f78003e4090005c
:104014000080fb001e0f40001e007800cdff07004b
:104024000080fa00000006000400fa00204798000f
:104034000040eb00004f7800120037002e40900043
:104044000004e00002003d00cbe2a80001003700bc
:10405400cbe2a900c00520000100200008020700ef
:10406400cba2a8002e4090000040400020479800ba
:10407400cba2a900c0052000010020000002070017
:104084001e4fe8001e407800e74f5000ebff36005b
:10409400cba2a800c005200001002000f801070001
:1040a400cba2a9000080fa00000006000600fa0076
:1040b4002047980031479800424798000040eb00a1
:1040c400004f78004e4090000080fb0061006000cb
:1040d400004078000004e000010032001e04a0004b
:1040e4004e4090000080fb00620060000000e00091
:1040f400010032001e14a0004e4090000080fb001e
:10410400640060000000e000010032001e24a000f2
:104114004e4090000080fb00680060000000e0005a
:10412400010032001e34a0004e4090000080fb00cd
:10413400700060000000e000010032001e64a00076
:104144004e4090008080fb00000220000080600050
:104154000000e000010032001e54a0004e40900018
:104164008080fb0000042000008060000000e0006c
:10417400010032001e44a0001e40780000404000b0
:10418400004f78002e4090000080fb00610060002a
:10419400004078000004e000010032001e04a0008a
:1041a4001e407800a0ff07002e4090000080fb0016
:1041b400620060000000e00002003200cbe2a800d0
:1041c40001003700cbe2a9003e4090000004e0006b
:1041d40002003200cbc2a80001003700cbc2a90004
:1041e400c005200001002000a5010700cb82a90022
:1041f400c005200001002000a1010700cb82a80017
:104204000080fa00000006000200fa00004f780067
:104214001e80fb00801088000000000071108000e8
:1042240000102000008060000000e000fbff32006e
:104234000080fa00000006000200fa00004f780037
:104244001e80fb00d010880000000000c110800018
:1042540000102000008060000000e000fbff32003e
:104264000080fa00000006000200fa00000f780047
:10427400040037001e007800104078001e0fe8008c
:10428400edff07001e007800104078000004e000f5
:10429400f8ff3a000080fa00000006000200fa006d
:1042a400004f78001e80fb004400de0000407800d0
:1042b4000042b000d4ff070000802d000100200060
:1042c4006f01070000c2b300cfff070000802d007c
:1042d400010020006a0107009e4078006fc0600062
:1042e40070404000c8ff070000802d00010020003e
:1042f4006301070000c1b300c3ff07000080fa0098
:10430400000006000200fa00004f780011479800f0
:104314001e4090000004e00005003a009e40780032
:1043240067c060008043b000b7ff07000400370097
:104334009e40780067c060000043b000b2ff0700f1
:104344000080fa00000006000200fa00004f780026
:104354009e40780063c060000044b000aaff0700dc
:104364000080fa00000006000400fa00f0cbb3005d
:10437400e0fe0700c7fe07000080ea00204798001f
:10438400f0cdb300dbfe0700c2fe07000080ea00a8
:10439400304798000000eb00000f78003e4090008a
:1043a4000080fb0061006000004078000004e00031
:1043b400010032001e00a0003e4090000080fb007f
:1043c400620060000000e000010032001e10a00046
:1043d4003e4090000080fb00680060000000e000a8
:1043e400010032001e20a0003e4090000080fb002f
:1043f400640060000000e000010032001e30a000f4
:104404003e4090000080fb00700060000000e0006f
:10441400010032001e40a0002e4090000080fb00ee
:1044240061006000004078000004e00001003200f8
:104434001e50a0002e4090000080fb00620060002f
:104444000000e000010032001e60a0002e40900039
:104454000080fb00680060000000e0000100320002
:104464001e70a0002e4090000080fb0064006000dd
:104474000000e000010032001e80a0002e409000e9
:104484000080fb00700060000000e00001003200ca
:104494001e90a0002e4090000004e00001003d00aa
:1044a4001ea0a0001e0078000080fa000000060094
:1044b4000000fa00400620002010880000002800b8
:1044c4003010880000d82000100888000481a8005b
:1044d4008c60a80000d02200600888001081a80029
:1044e40011e1a80080002000a01088000de2a800bf
:1044f4000c02a8008d20a8000f42a8009000200004
:10450400f010880017e2a8008f00a8001942a80044
:10451400dec2a900e2c2a800c7e2a900c7c2a9007e
:10452400c7a2a900c782a900c682a900c642a900e1
:10453400d302a900d322a900d342a900c702a9002b
:10454400c722a9009039200001002000cc000700f8
:104554000080fa00000006000000fa0070b020009d
:104564007cfe0700f0ff20007afe07000000250013
:1045740061042000c200070000ff200075fe070050
:1045840010c0200073fe070070b0200071fe070009
:1045940050a020006ffe0700f09f20006dfe070072
:0845a4000080fa00000006008f
:020000040000fa
:1045ac00a4090000ca000000000000000008000080
:1045bc0044000000000000006e0a000052000000e1
:1045cc000200000030313200333435003637380009
:1045dc00394142004344450046003000313233003b
:1045ec003435360037383900616263006465660023
:1045fc0000286e00756c6c002900000001000000a2
:10460c00000a00000000640000000000e803000045
:10461c00001027000000a0008601000040420f009f
:10462c000080960098000000e1f5050000ca9a0091
:10463c003b000000c00a0000260000000200000041
:10464c00e70a000000e70a00090000000002000071
:10465c00e90a000000e90a000e0201000000000057
:10466c000000000000000000060202000000000034
:10467c00c00a0000e60a000006000000000000006e
:10468c00440800006001000002000000000000006f
:10469c0000000000f03f00000000000000002400bb
:1046ac004000000000000000005940000000000025
:1046bc00000040008f400000000000000088c30094
:1046cc0040000000000000006af8400000000000fc
:1046dc00008084002e41000000000000d012630016
:1046ec004100000000008400d7974100000000004a
:1046fc000065cd00cd410000000020005fa002004d
:10470c0042408c00b5781d00af154400ea8ca00027
:10471c0039593e002946a5005cc3f10029633d00d0
:10472c00489a64007ec50e001b514a0044f3c20037
:10473c00e4e4e900634c3d00c7ddd600ba2e7700f7
:10474c004e5ffb00f051ef00fc8a5000c759290066
:10475c00090f6b009f527d00c3942500ad49b20038
:10476c00545a6200d7d71800e77469009c75000092
:10477c00883ce400377e0000000000000000f000e0
:10478c003f9a99009999990099b93f007b14ae0012
:10479c0047e17a00843ffc00a9f1d2004d62500041
:1047ac003f2d43001cebe200361a3f00f168e3009a
:1047bc0088b5f800e43e8d00edb5a000f7c6b0005a
:1047cc003e48af00bc9af200d77a3e003a8c3000db
:1047dc00e28e7900453e9500d626e8000b2e11009e
:1047ec003ebbbd00d7d9df007cdb3d0023429200ed
:1047fc000ca19c00c73ba000c2ebfe004b48b400d0
:10480c00399c5700772726006ca137001fb8d400bd
:10481c004a7aee008d352600a6acaa0004b67900c3
:10482c00339d35008f1de9001566310023614d0065
:10483c0017acf800522f6f000e998400d94b400032
:10484c002d3005008ee42e00ff2b2b00acf74e0014
:10485c0015927e0068165900f3f8c2001f6ea50071
:10486c0001000000ec0a0000020000000200000041
:08487c00010000000000000033
:020000040000fa
:10488400f03fb1000180b10006003500ee030900dd
:1048940000000000403fb1000180b100fbff3d007b
:1048a4001000b000203fb000020035000080090075
:0848b4000000000000000600f6
:020000040000fa
:0200000401f009
:04000000f1bf00004c
:020000040000fa
:0200000401f009
:04000400ff7f00007a
:020000040000fa
:0200000401f009
:04000800fcff0000f9
:020000040000fa
:0200000401f009
:04000c00ffff0000f2
:020000040000fa
:0200000401f009
:04001000ffff0000ee
:020000040000fa
:0200000401f009
:04001400ffff0000ea
:020000040000fa
:0200000401f009
:04001800ffff0000e6
:00000001FF
